{
  "contractName": "S3__Seller",
  "abi": [
    {
      "inputs": [],
      "stateMutability": "nonpayable",
      "type": "constructor"
    },
    {
      "anonymous": false,
      "inputs": [
        {
          "indexed": false,
          "internalType": "string",
          "name": "t",
          "type": "string"
        }
      ],
      "name": "FSMStateTransition",
      "type": "event"
    },
    {
      "inputs": [
        {
          "internalType": "string",
          "name": "_id",
          "type": "string"
        },
        {
          "internalType": "string",
          "name": "_doc",
          "type": "string"
        },
        {
          "internalType": "string",
          "name": "_sig",
          "type": "string"
        }
      ],
      "name": "addToSignatures",
      "outputs": [],
      "stateMutability": "nonpayable",
      "type": "function"
    },
    {
      "inputs": [
        {
          "internalType": "string",
          "name": "id",
          "type": "string"
        },
        {
          "internalType": "string",
          "name": "typ",
          "type": "string"
        },
        {
          "internalType": "string",
          "name": "input",
          "type": "string"
        },
        {
          "internalType": "string",
          "name": "output",
          "type": "string"
        },
        {
          "internalType": "string",
          "name": "conditions",
          "type": "string"
        },
        {
          "internalType": "int256",
          "name": "lvl",
          "type": "int256"
        }
      ],
      "name": "addToStates",
      "outputs": [],
      "stateMutability": "nonpayable",
      "type": "function"
    },
    {
      "inputs": [
        {
          "internalType": "string",
          "name": "fro",
          "type": "string"
        },
        {
          "internalType": "string",
          "name": "to",
          "type": "string"
        },
        {
          "internalType": "string",
          "name": "input",
          "type": "string"
        },
        {
          "internalType": "string",
          "name": "typ",
          "type": "string"
        }
      ],
      "name": "addToTransitions",
      "outputs": [],
      "stateMutability": "nonpayable",
      "type": "function"
    },
    {
      "inputs": [
        {
          "internalType": "address",
          "name": "referenceAddress",
          "type": "address"
        },
        {
          "internalType": "string",
          "name": "_message",
          "type": "string"
        },
        {
          "internalType": "uint8",
          "name": "_v",
          "type": "uint8"
        },
        {
          "internalType": "bytes32",
          "name": "_r",
          "type": "bytes32"
        },
        {
          "internalType": "bytes32",
          "name": "_s",
          "type": "bytes32"
        }
      ],
      "name": "attestSignature",
      "outputs": [],
      "stateMutability": "pure",
      "type": "function"
    },
    {
      "inputs": [
        {
          "internalType": "string",
          "name": "s1",
          "type": "string"
        },
        {
          "internalType": "string",
          "name": "s2",
          "type": "string"
        }
      ],
      "name": "compareStringsbyBytes",
      "outputs": [
        {
          "internalType": "bool",
          "name": "",
          "type": "bool"
        }
      ],
      "stateMutability": "pure",
      "type": "function"
    },
    {
      "inputs": [
        {
          "internalType": "string",
          "name": "actorname",
          "type": "string"
        }
      ],
      "name": "getActorAccountFromActor",
      "outputs": [
        {
          "internalType": "address",
          "name": "",
          "type": "address"
        }
      ],
      "stateMutability": "view",
      "type": "function"
    },
    {
      "inputs": [
        {
          "internalType": "string",
          "name": "xactionName",
          "type": "string"
        }
      ],
      "name": "getActorFromXaction",
      "outputs": [
        {
          "internalType": "string",
          "name": "",
          "type": "string"
        }
      ],
      "stateMutability": "view",
      "type": "function"
    },
    {
      "inputs": [
        {
          "internalType": "address",
          "name": "xactionAccount",
          "type": "address"
        }
      ],
      "name": "getActorFromXactionAccount",
      "outputs": [
        {
          "internalType": "string",
          "name": "",
          "type": "string"
        }
      ],
      "stateMutability": "view",
      "type": "function"
    },
    {
      "inputs": [
        {
          "internalType": "string",
          "name": "_id",
          "type": "string"
        },
        {
          "internalType": "string",
          "name": "_doc",
          "type": "string"
        }
      ],
      "name": "getSignatures",
      "outputs": [
        {
          "internalType": "string[]",
          "name": "",
          "type": "string[]"
        }
      ],
      "stateMutability": "view",
      "type": "function"
    },
    {
      "inputs": [
        {
          "internalType": "string",
          "name": "xactionName",
          "type": "string"
        }
      ],
      "name": "getXactionAccountFromXaction",
      "outputs": [
        {
          "internalType": "address",
          "name": "",
          "type": "address"
        }
      ],
      "stateMutability": "view",
      "type": "function"
    },
    {
      "inputs": [
        {
          "internalType": "address",
          "name": "xactionAccount",
          "type": "address"
        }
      ],
      "name": "getXactionFromXactionAccount",
      "outputs": [
        {
          "internalType": "string",
          "name": "",
          "type": "string"
        }
      ],
      "stateMutability": "view",
      "type": "function"
    },
    {
      "inputs": [],
      "name": "owner",
      "outputs": [
        {
          "internalType": "address",
          "name": "",
          "type": "address"
        }
      ],
      "stateMutability": "view",
      "type": "function"
    },
    {
      "inputs": [
        {
          "internalType": "string",
          "name": "message",
          "type": "string"
        },
        {
          "internalType": "uint8",
          "name": "v",
          "type": "uint8"
        },
        {
          "internalType": "bytes32",
          "name": "r",
          "type": "bytes32"
        },
        {
          "internalType": "bytes32",
          "name": "s",
          "type": "bytes32"
        }
      ],
      "name": "recoverSignature",
      "outputs": [
        {
          "internalType": "address",
          "name": "signer",
          "type": "address"
        }
      ],
      "stateMutability": "pure",
      "type": "function"
    },
    {
      "inputs": [
        {
          "internalType": "string",
          "name": "transactionId",
          "type": "string"
        },
        {
          "internalType": "string",
          "name": "stateid",
          "type": "string"
        },
        {
          "internalType": "string",
          "name": "newStateid",
          "type": "string"
        },
        {
          "internalType": "string",
          "name": "input",
          "type": "string"
        },
        {
          "internalType": "string",
          "name": "encyptedMsg",
          "type": "string"
        }
      ],
      "name": "resvStateChanges",
      "outputs": [],
      "stateMutability": "nonpayable",
      "type": "function"
    },
    {
      "inputs": [
        {
          "internalType": "string",
          "name": "source",
          "type": "string"
        }
      ],
      "name": "stringToBytes32",
      "outputs": [
        {
          "internalType": "bytes32",
          "name": "result",
          "type": "bytes32"
        }
      ],
      "stateMutability": "pure",
      "type": "function"
    }
  ],
  "bytecode": "0x60806040523480156200001157600080fd5b507360684acf45b99ed7eff2ac0fa2db829fea0883c2600c604051620000379062000ebf565b908152602001604051809103902060006101000a81548173ffffffffffffffffffffffffffffffffffffffff021916908373ffffffffffffffffffffffffffffffffffffffff160217905550600480600181540180825580915050600190039060005260206000200160006040518060400160405280600981526020017f53315f5f4275796572000000000000000000000000000000000000000000000081525090919091509080519060200190620000f292919062000cb9565b506040518060400160405280600581526020017f4275796572000000000000000000000000000000000000000000000000000000815250600d604051620001399062000ebf565b908152602001604051809103902090805190602001906200015c92919062000cb9565b5073ee69ed07b62ef7fce9ae72048d3bb6dd64ab35e7600b604051620001829062000f04565b908152602001604051809103902060006101000a81548173ffffffffffffffffffffffffffffffffffffffff021916908373ffffffffffffffffffffffffffffffffffffffff160217905550600380600181540180825580915050600190039060005260206000200160006040518060400160405280600581526020017f4275796572000000000000000000000000000000000000000000000000000000815250909190915090805190602001906200023d92919062000cb9565b5073b040933b0955da47b9729aee15d4a046f516a917600c604051620002639062000eed565b908152602001604051809103902060006101000a81548173ffffffffffffffffffffffffffffffffffffffff021916908373ffffffffffffffffffffffffffffffffffffffff160217905550600480600181540180825580915050600190039060005260206000200160006040518060400160405280600981526020017f53335f5f42757965720000000000000000000000000000000000000000000000815250909190915090805190602001906200031e92919062000cb9565b506040518060400160405280600581526020017f4275796572000000000000000000000000000000000000000000000000000000815250600d604051620003659062000eed565b908152602001604051809103902090805190602001906200038892919062000cb9565b507361bf5528cacd434d26d4173cce3b22617fe67acf600c604051620003ae9062000e7a565b908152602001604051809103902060006101000a81548173ffffffffffffffffffffffffffffffffffffffff021916908373ffffffffffffffffffffffffffffffffffffffff160217905550600480600181540180825580915050600190039060005260206000200160006040518060400160405280600a81526020017f53335f5f53656c6c657200000000000000000000000000000000000000000000815250909190915090805190602001906200046992919062000cb9565b506040518060400160405280600681526020017f53656c6c65720000000000000000000000000000000000000000000000000000815250600d604051620004b09062000e7a565b90815260200160405180910390209080519060200190620004d392919062000cb9565b50730388cee553325bcbc64512e2c460c5f539522d1e600b604051620004f99062000ed6565b908152602001604051809103902060006101000a81548173ffffffffffffffffffffffffffffffffffffffff021916908373ffffffffffffffffffffffffffffffffffffffff160217905550600380600181540180825580915050600190039060005260206000200160006040518060400160405280600681526020017f53656c6c6572000000000000000000000000000000000000000000000000000081525090919091509080519060200190620005b492919062000cb9565b5073e64afdad2a3966ecbb9b9bffbab9cdd2154f6d69600c604051620005da9062000ea8565b908152602001604051809103902060006101000a81548173ffffffffffffffffffffffffffffffffffffffff021916908373ffffffffffffffffffffffffffffffffffffffff160217905550600480600181540180825580915050600190039060005260206000200160006040518060400160405280601081526020017f7061727469616c5f6f6e5f636861696e00000000000000000000000000000000815250909190915090805190602001906200069592919062000cb9565b50600380600181540180825580915050600190039060005260206000200160006040518060400160405280601081526020017f7061727469616c5f6f6e5f636861696e00000000000000000000000000000000815250909190915090805190602001906200070592919062000cb9565b506040518060400160405280601081526020017f7061727469616c5f6f6e5f636861696e00000000000000000000000000000000815250600d6040516200074c9062000ea8565b908152602001604051809103902090805190602001906200076f92919062000cb9565b50731786b293a1ee374c3ff2ca24d563f5270ae500e7600c604051620007959062000e91565b908152602001604051809103902060006101000a81548173ffffffffffffffffffffffffffffffffffffffff021916908373ffffffffffffffffffffffffffffffffffffffff160217905550600480600181540180825580915050600190039060005260206000200160006040518060400160405280600e81526020017f746f74616c5f6f6e5f636861696e000000000000000000000000000000000000815250909190915090805190602001906200085092919062000cb9565b50600380600181540180825580915050600190039060005260206000200160006040518060400160405280600e81526020017f746f74616c5f6f6e5f636861696e00000000000000000000000000000000000081525090919091509080519060200190620008c092919062000cb9565b506040518060400160405280600e81526020017f746f74616c5f6f6e5f636861696e000000000000000000000000000000000000815250600d604051620009079062000e91565b908152602001604051809103902090805190602001906200092a92919062000cb9565b50600c6040516200093b9062000e7a565b908152602001604051809103902060009054906101000a900473ffffffffffffffffffffffffffffffffffffffff16600760006101000a81548173ffffffffffffffffffffffffffffffffffffffff021916908373ffffffffffffffffffffffffffffffffffffffff16021790555062000a466040518060400160405280600f81526020017f476174657761795f3063327373686100000000000000000000000000000000008152506040518060400160405280601d81526020017f53656c6c65725f5369676e5f50757263686173655f446f63756d656e74000000815250604051806020016040528060008152506040518060200160405280600081525062000be960201b60201c565b60006040518060c001604052806040518060400160405280601d81526020017f53656c6c65725f5369676e5f50757263686173655f446f63756d656e7400000081525081526020016040518060400160405280600581526020017f736f6c69640000000000000000000000000000000000000000000000000000008152508152602001604051806020016040528060008152508152602001604051806020016040528060008152508152602001604051806020016040528060008152508152602001600381525090506001819080600181540180825580915050600190039060005260206000209060060201600090919091909150600082015181600001908051906020019062000b5992919062000cb9565b50602082015181600101908051906020019062000b7892919062000cb9565b50604082015181600201908051906020019062000b9792919062000cb9565b50606082015181600301908051906020019062000bb692919062000cb9565b50608082015181600401908051906020019062000bd592919062000cb9565b5060a08201518160050155505050620010aa565b60026040518060800160405280868152602001858152602001848152602001838152509080600181540180825580915050600190039060005260206000209060040201600090919091909150600082015181600001908051906020019062000c5392919062000cb9565b50602082015181600101908051906020019062000c7292919062000cb9565b50604082015181600201908051906020019062000c9192919062000cb9565b50606082015181600301908051906020019062000cb092919062000cb9565b50505050505050565b82805462000cc79062000f26565b90600052602060002090601f01602090048101928262000ceb576000855562000d37565b82601f1062000d0657805160ff191683800117855562000d37565b8280016001018555821562000d37579182015b8281111562000d3657825182559160200191906001019062000d19565b5b50905062000d46919062000d4a565b5090565b5b8082111562000d6557600081600090555060010162000d4b565b5090565b600062000d78600a8362000f1b565b915062000d858262000f8b565b600a82019050919050565b600062000d9f600e8362000f1b565b915062000dac8262000fb4565b600e82019050919050565b600062000dc660108362000f1b565b915062000dd38262000fdd565b601082019050919050565b600062000ded60098362000f1b565b915062000dfa8262001006565b600982019050919050565b600062000e1460068362000f1b565b915062000e21826200102f565b600682019050919050565b600062000e3b60098362000f1b565b915062000e488262001058565b600982019050919050565b600062000e6260058362000f1b565b915062000e6f8262001081565b600582019050919050565b600062000e878262000d69565b9150819050919050565b600062000e9e8262000d90565b9150819050919050565b600062000eb58262000db7565b9150819050919050565b600062000ecc8262000dde565b9150819050919050565b600062000ee38262000e05565b9150819050919050565b600062000efa8262000e2c565b9150819050919050565b600062000f118262000e53565b9150819050919050565b600081905092915050565b6000600282049050600182168062000f3f57607f821691505b6020821081141562000f565762000f5562000f5c565b5b50919050565b7f4e487b7100000000000000000000000000000000000000000000000000000000600052602260045260246000fd5b7f53335f5f53656c6c657200000000000000000000000000000000000000000000600082015250565b7f746f74616c5f6f6e5f636861696e000000000000000000000000000000000000600082015250565b7f7061727469616c5f6f6e5f636861696e00000000000000000000000000000000600082015250565b7f53315f5f42757965720000000000000000000000000000000000000000000000600082015250565b7f53656c6c65720000000000000000000000000000000000000000000000000000600082015250565b7f53335f5f42757965720000000000000000000000000000000000000000000000600082015250565b7f4275796572000000000000000000000000000000000000000000000000000000600082015250565b61265980620010ba6000396000f3fe608060405234801561001057600080fd5b50600436106100f55760003560e01c80636c1b4b3b11610097578063c73c329511610066578063c73c3295146102a8578063c79b26e0146102c4578063cfb51928146102f4578063e9a734ff14610324576100f5565b80636c1b4b3b1461020e5780638da5cb5b1461023e578063997547c71461025c578063a451036e14610278576100f5565b806343d6721c116100d357806343d6721c146101625780634b8b6c271461017e5780634f31f0b6146101ae578063501ff720146101de576100f5565b80630ba774c9146100fa57806334fe5116146101165780633b9e374014610132575b600080fd5b610114600480360381019061010f9190611966565b610354565b005b610130600480360381019061012b9190611690565b610689565b005b61014c60048036038101906101479190611727565b61070f565b6040516101599190611f45565b60405180910390f35b61017c60048036038101906101779190611a6d565b610757565b005b61019860048036038101906101939190611727565b610854565b6040516101a59190611f45565b60405180910390f35b6101c860048036038101906101c39190611663565b61089c565b6040516101d59190611ffd565b60405180910390f35b6101f860048036038101906101f39190611727565b610ac2565b6040516102059190611ffd565b60405180910390f35b61022860048036038101906102239190611663565b610b72565b6040516102359190611ffd565b60405180910390f35b610246610cf2565b6040516102539190611f45565b60405180910390f35b6102766004803603810190610271919061188f565b610d18565b005b610292600480360381019061028d9190611770565b610de0565b60405161029f9190611f60565b60405180910390f35b6102c260048036038101906102bd91906117e8565b61106a565b005b6102de60048036038101906102d99190611b86565b61110e565b6040516102eb9190611f45565b60405180910390f35b61030e60048036038101906103099190611727565b6112bd565b60405161031b9190611f9d565b60405180910390f35b61033e60048036038101906103399190611770565b6112e7565b60405161034b9190611f82565b60405180910390f35b84848484846000806103668686611340565b9150915061041a60088860405161037d9190611e7c565b908152602001604051809103902080546103969061231b565b80601f01602080910402602001604051908101604052809291908181526020018280546103c29061231b565b801561040f5780601f106103e45761010080835404028352916020019161040f565b820191906000526020600020905b8154815290600101906020018083116103f257829003601f168201915b5050505050876112e7565b80610460575061045f6040518060400160405280600781526020017f74657374696e6700000000000000000000000000000000000000000000000000815250876112e7565b5b61049f576040517f08c379a00000000000000000000000000000000000000000000000000000000081526004016104969061205f565b60405180910390fd5b6104de6040518060400160405280600781526020017f74657374696e6700000000000000000000000000000000000000000000000000815250856112e7565b806105a557508180156105a457506105a36002828154811061050357610502612454565b5b9060005260206000209060040201600201805461051f9061231b565b80601f016020809104026020016040519081016040528092919081815260200182805461054b9061231b565b80156105985780601f1061056d57610100808354040283529160200191610598565b820191906000526020600020905b81548152906001019060200180831161057b57829003601f168201915b5050505050856112e7565b5b5b6105e4576040517f08c379a00000000000000000000000000000000000000000000000000000000081526004016105db9061201f565b60405180910390fd5b8960088d6040516105f59190611e7c565b908152602001604051809103902090805190602001906106169291906114fc565b506000808d8d8d8c604051602001610632959493929190611ece565b60405160208183030381529060405290507f9bdccddda5ce9cecb79558bf01e1618704898adc0c87f93b21aa5667b1f57f1f816040516106729190611ffd565b60405180910390a150505050505050505050505050565b60006106978585858561110e565b90508573ffffffffffffffffffffffffffffffffffffffff168173ffffffffffffffffffffffffffffffffffffffff1614610707576040517f08c379a00000000000000000000000000000000000000000000000000000000081526004016106fe9061203f565b60405180910390fd5b505050505050565b6000600b826040516107219190611e7c565b908152602001604051809103902060009054906101000a900473ffffffffffffffffffffffffffffffffffffffff169050919050565b60016040518060c0016040528088815260200187815260200186815260200185815260200184815260200183815250908060018154018082558091505060019003906000526020600020906006020160009091909190915060008201518160000190805190602001906107cb9291906114fc565b5060208201518160010190805190602001906107e89291906114fc565b5060408201518160020190805190602001906108059291906114fc565b5060608201518160030190805190602001906108229291906114fc565b50608082015181600401908051906020019061083f9291906114fc565b5060a082015181600501555050505050505050565b6000600c826040516108669190611e7c565b908152602001604051809103902060009054906101000a900473ffffffffffffffffffffffffffffffffffffffff169050919050565b6060600060405180602001604052806000815250905060005b600480549050811015610a1257600c600482815481106108d8576108d7612454565b5b906000526020600020016040516108ef9190611eb7565b908152602001604051809103902060009054906101000a900473ffffffffffffffffffffffffffffffffffffffff1673ffffffffffffffffffffffffffffffffffffffff168473ffffffffffffffffffffffffffffffffffffffff1614156109ff576004818154811061096557610964612454565b5b90600052602060002001805461097a9061231b565b80601f01602080910402602001604051908101604052809291908181526020018280546109a69061231b565b80156109f35780601f106109c8576101008083540402835291602001916109f3565b820191906000526020600020905b8154815290600101906020018083116109d657829003601f168201915b50505050509150610a12565b8080610a0a9061237e565b9150506108b5565b50600d81604051610a239190611e7c565b90815260200160405180910390208054610a3c9061231b565b80601f0160208091040260200160405190810160405280929190818152602001828054610a689061231b565b8015610ab55780601f10610a8a57610100808354040283529160200191610ab5565b820191906000526020600020905b815481529060010190602001808311610a9857829003601f168201915b5050505050915050919050565b6060600d82604051610ad49190611e7c565b90815260200160405180910390208054610aed9061231b565b80601f0160208091040260200160405190810160405280929190818152602001828054610b199061231b565b8015610b665780601f10610b3b57610100808354040283529160200191610b66565b820191906000526020600020905b815481529060010190602001808311610b4957829003601f168201915b50505050509050919050565b6060600060405180602001604052806000815250905060005b600480549050811015610ce857600c60048281548110610bae57610bad612454565b5b90600052602060002001604051610bc59190611eb7565b908152602001604051809103902060009054906101000a900473ffffffffffffffffffffffffffffffffffffffff1673ffffffffffffffffffffffffffffffffffffffff168473ffffffffffffffffffffffffffffffffffffffff161415610cd55760048181548110610c3b57610c3a612454565b5b906000526020600020018054610c509061231b565b80601f0160208091040260200160405190810160405280929190818152602001828054610c7c9061231b565b8015610cc95780601f10610c9e57610100808354040283529160200191610cc9565b820191906000526020600020905b815481529060010190602001808311610cac57829003601f168201915b50505050509150610ce8565b8080610ce09061237e565b915050610b8b565b5080915050919050565b600760009054906101000a900473ffffffffffffffffffffffffffffffffffffffff1681565b600260405180608001604052808681526020018581526020018481526020018381525090806001815401808255809150506001900390600052602060002090600402016000909190919091506000820151816000019080519060200190610d809291906114fc565b506020820151816001019080519060200190610d9d9291906114fc565b506040820151816002019080519060200190610dba9291906114fc565b506060820151816003019080519060200190610dd79291906114fc565b50505050505050565b60606000606060005b60068054905081101561105e57600060068281548110610e0c57610e0b612454565b5b9060005260206000209060030201604051806060016040529081600082018054610e359061231b565b80601f0160208091040260200160405190810160405280929190818152602001828054610e619061231b565b8015610eae5780601f10610e8357610100808354040283529160200191610eae565b820191906000526020600020905b815481529060010190602001808311610e9157829003601f168201915b50505050508152602001600182018054610ec79061231b565b80601f0160208091040260200160405190810160405280929190818152602001828054610ef39061231b565b8015610f405780601f10610f1557610100808354040283529160200191610f40565b820191906000526020600020905b815481529060010190602001808311610f2357829003601f168201915b50505050508152602001600282018054610f599061231b565b80601f0160208091040260200160405190810160405280929190818152602001828054610f859061231b565b8015610fd25780601f10610fa757610100808354040283529160200191610fd2565b820191906000526020600020905b815481529060010190602001808311610fb557829003601f168201915b50505050508152505090506000816000015190506000826020015190506000836040015190506110028a846112e7565b8015611014575061101389836112e7565b5b15611047578086888151811061102d5761102c612454565b5b602002602001018190525086806110439061237e565b9750505b5050505080806110569061237e565b915050610de9565b50809250505092915050565b6006604051806060016040528085815260200184815260200183815250908060018154018082558091505060019003906000526020600020906003020160009091909190915060008201518160000190805190602001906110cc9291906114fc565b5060208201518160010190805190602001906110e99291906114fc565b5060408201518160020190805190602001906111069291906114fc565b505050505050565b6000806040518060400160405280602081526020017f19457468657265756d205369676e6564204d6573736167653a0a303030303030815250905060008087519050603983019150620f423f81111561116657600080fd5b600080620186a090505b6000811461120c576000818461118691906121b1565b905060008114156111b05760008314156111af57600a826111a791906121b1565b915050611170565b5b82806111bb9061237e565b93505081816111ca91906121e2565b846111d5919061223c565b9350600a826111e491906121b1565b91506030816111f3919061215b565b905084806112009061237e565b95505080855350611170565b600082141561121e57601b915061122e565b601a8261122b919061215b565b91505b8185526000858b604051602001611246929190611e93565b6040516020818303038152906040528051906020012090506001818b8b8b604051600081526020016040526040516112819493929190611fb8565b6020604051602081039080840390855afa1580156112a3573d6000803e3d6000fd5b505050602060405103519650505050505050949350505050565b6000808290506000815114156112d9576000801b9150506112e2565b60208301519150505b919050565b6000816040516020016112fa9190611e7c565b60405160208183030381529060405280519060200120836040516020016113219190611e7c565b6040516020818303038152906040528051906020012014905092915050565b60008060005b6002805490508110156114ec5761140a6002828154811061136a57611369612454565b5b906000526020600020906004020160000180546113869061231b565b80601f01602080910402602001604051908101604052809291908181526020018280546113b29061231b565b80156113ff5780601f106113d4576101008083540402835291602001916113ff565b820191906000526020600020905b8154815290600101906020018083116113e257829003601f168201915b5050505050866112e7565b156114d9576114c66002828154811061142657611425612454565b5b906000526020600020906004020160010180546114429061231b565b80601f016020809104026020016040519081016040528092919081815260200182805461146e9061231b565b80156114bb5780601f10611490576101008083540402835291602001916114bb565b820191906000526020600020905b81548152906001019060200180831161149e57829003601f168201915b5050505050856112e7565b156114d85760018192509250506114f5565b5b80806114e49061237e565b915050611346565b50600080915091505b9250929050565b8280546115089061231b565b90600052602060002090601f01602090048101928261152a5760008555611571565b82601f1061154357805160ff1916838001178555611571565b82800160010185558215611571579182015b82811115611570578251825591602001919060010190611555565b5b50905061157e9190611582565b5090565b5b8082111561159b576000816000905550600101611583565b5090565b60006115b26115ad846120a4565b61207f565b9050828152602081018484840111156115ce576115cd6124b7565b5b6115d98482856122d9565b509392505050565b6000813590506115f0816125c7565b92915050565b600081359050611605816125de565b92915050565b60008135905061161a816125f5565b92915050565b600082601f830112611635576116346124b2565b5b813561164584826020860161159f565b91505092915050565b60008135905061165d8161260c565b92915050565b600060208284031215611679576116786124c1565b5b6000611687848285016115e1565b91505092915050565b600080600080600060a086880312156116ac576116ab6124c1565b5b60006116ba888289016115e1565b955050602086013567ffffffffffffffff8111156116db576116da6124bc565b5b6116e788828901611620565b94505060406116f88882890161164e565b9350506060611709888289016115f6565b925050608061171a888289016115f6565b9150509295509295909350565b60006020828403121561173d5761173c6124c1565b5b600082013567ffffffffffffffff81111561175b5761175a6124bc565b5b61176784828501611620565b91505092915050565b60008060408385031215611787576117866124c1565b5b600083013567ffffffffffffffff8111156117a5576117a46124bc565b5b6117b185828601611620565b925050602083013567ffffffffffffffff8111156117d2576117d16124bc565b5b6117de85828601611620565b9150509250929050565b600080600060608486031215611801576118006124c1565b5b600084013567ffffffffffffffff81111561181f5761181e6124bc565b5b61182b86828701611620565b935050602084013567ffffffffffffffff81111561184c5761184b6124bc565b5b61185886828701611620565b925050604084013567ffffffffffffffff811115611879576118786124bc565b5b61188586828701611620565b9150509250925092565b600080600080608085870312156118a9576118a86124c1565b5b600085013567ffffffffffffffff8111156118c7576118c66124bc565b5b6118d387828801611620565b945050602085013567ffffffffffffffff8111156118f4576118f36124bc565b5b61190087828801611620565b935050604085013567ffffffffffffffff811115611921576119206124bc565b5b61192d87828801611620565b925050606085013567ffffffffffffffff81111561194e5761194d6124bc565b5b61195a87828801611620565b91505092959194509250565b600080600080600060a08688031215611982576119816124c1565b5b600086013567ffffffffffffffff8111156119a05761199f6124bc565b5b6119ac88828901611620565b955050602086013567ffffffffffffffff8111156119cd576119cc6124bc565b5b6119d988828901611620565b945050604086013567ffffffffffffffff8111156119fa576119f96124bc565b5b611a0688828901611620565b935050606086013567ffffffffffffffff811115611a2757611a266124bc565b5b611a3388828901611620565b925050608086013567ffffffffffffffff811115611a5457611a536124bc565b5b611a6088828901611620565b9150509295509295909350565b60008060008060008060c08789031215611a8a57611a896124c1565b5b600087013567ffffffffffffffff811115611aa857611aa76124bc565b5b611ab489828a01611620565b965050602087013567ffffffffffffffff811115611ad557611ad46124bc565b5b611ae189828a01611620565b955050604087013567ffffffffffffffff811115611b0257611b016124bc565b5b611b0e89828a01611620565b945050606087013567ffffffffffffffff811115611b2f57611b2e6124bc565b5b611b3b89828a01611620565b935050608087013567ffffffffffffffff811115611b5c57611b5b6124bc565b5b611b6889828a01611620565b92505060a0611b7989828a0161160b565b9150509295509295509295565b60008060008060808587031215611ba057611b9f6124c1565b5b600085013567ffffffffffffffff811115611bbe57611bbd6124bc565b5b611bca87828801611620565b9450506020611bdb8782880161164e565b9350506040611bec878288016115f6565b9250506060611bfd878288016115f6565b91505092959194509250565b6000611c158383611cbf565b905092915050565b611c2681612270565b82525050565b6000611c37826120fa565b611c41818561211d565b935083602082028501611c53856120d5565b8060005b85811015611c8f5784840389528151611c708582611c09565b9450611c7b83612110565b925060208a01995050600181019050611c57565b50829750879550505050505092915050565b611caa81612282565b82525050565b611cb98161228e565b82525050565b6000611cca82612105565b611cd4818561212e565b9350611ce48185602086016122e8565b611ced816124c6565b840191505092915050565b6000611d0382612105565b611d0d818561213f565b9350611d1d8185602086016122e8565b611d26816124c6565b840191505092915050565b6000611d3c82612105565b611d468185612150565b9350611d568185602086016122e8565b80840191505092915050565b60008154611d6f8161231b565b611d798186612150565b94506001821660008114611d945760018114611da557611dd8565b60ff19831686528186019350611dd8565b611dae856120e5565b60005b83811015611dd057815481890152600182019150602081019050611db1565b838801955050505b50505092915050565b6000611dee600183612150565b9150611df9826124d7565b600182019050919050565b6000611e1160238361213f565b9150611e1c82612500565b604082019050919050565b6000611e3460128361213f565b9150611e3f8261254f565b602082019050919050565b6000611e57602a8361213f565b9150611e6282612578565b604082019050919050565b611e76816122cc565b82525050565b6000611e888284611d31565b915081905092915050565b6000611e9f8285611d31565b9150611eab8284611d31565b91508190509392505050565b6000611ec38284611d62565b915081905092915050565b6000611eda8288611d62565b9150611ee582611de1565b9150611ef18287611d31565b9150611efc82611de1565b9150611f088286611d31565b9150611f1382611de1565b9150611f1f8285611d31565b9150611f2a82611de1565b9150611f368284611d31565b91508190509695505050505050565b6000602082019050611f5a6000830184611c1d565b92915050565b60006020820190508181036000830152611f7a8184611c2c565b905092915050565b6000602082019050611f976000830184611ca1565b92915050565b6000602082019050611fb26000830184611cb0565b92915050565b6000608082019050611fcd6000830187611cb0565b611fda6020830186611e6d565b611fe76040830185611cb0565b611ff46060830184611cb0565b95945050505050565b600060208201905081810360008301526120178184611cf8565b905092915050565b6000602082019050818103600083015261203881611e04565b9050919050565b6000602082019050818103600083015261205881611e27565b9050919050565b6000602082019050818103600083015261207881611e4a565b9050919050565b600061208961209a565b9050612095828261234d565b919050565b6000604051905090565b600067ffffffffffffffff8211156120bf576120be612483565b5b6120c8826124c6565b9050602081019050919050565b6000819050602082019050919050565b60008190508160005260206000209050919050565b600081519050919050565b600081519050919050565b6000602082019050919050565b600082825260208201905092915050565b600082825260208201905092915050565b600082825260208201905092915050565b600081905092915050565b6000612166826122c2565b9150612171836122c2565b9250827fffffffffffffffffffffffffffffffffffffffffffffffffffffffffffffffff038211156121a6576121a56123c7565b5b828201905092915050565b60006121bc826122c2565b91506121c7836122c2565b9250826121d7576121d66123f6565b5b828204905092915050565b60006121ed826122c2565b91506121f8836122c2565b9250817fffffffffffffffffffffffffffffffffffffffffffffffffffffffffffffffff0483118215151615612231576122306123c7565b5b828202905092915050565b6000612247826122c2565b9150612252836122c2565b925082821015612265576122646123c7565b5b828203905092915050565b600061227b826122a2565b9050919050565b60008115159050919050565b6000819050919050565b6000819050919050565b600073ffffffffffffffffffffffffffffffffffffffff82169050919050565b6000819050919050565b600060ff82169050919050565b82818337600083830152505050565b60005b838110156123065780820151818401526020810190506122eb565b83811115612315576000848401525b50505050565b6000600282049050600182168061233357607f821691505b6020821081141561234757612346612425565b5b50919050565b612356826124c6565b810181811067ffffffffffffffff8211171561237557612374612483565b5b80604052505050565b6000612389826122c2565b91507fffffffffffffffffffffffffffffffffffffffffffffffffffffffffffffffff8214156123bc576123bb6123c7565b5b600182019050919050565b7f4e487b7100000000000000000000000000000000000000000000000000000000600052601160045260246000fd5b7f4e487b7100000000000000000000000000000000000000000000000000000000600052601260045260246000fd5b7f4e487b7100000000000000000000000000000000000000000000000000000000600052602260045260246000fd5b7f4e487b7100000000000000000000000000000000000000000000000000000000600052603260045260246000fd5b7f4e487b7100000000000000000000000000000000000000000000000000000000600052604160045260246000fd5b600080fd5b600080fd5b600080fd5b600080fd5b6000601f19601f8301169050919050565b7f2c00000000000000000000000000000000000000000000000000000000000000600082015250565b7f746865207472616e6973696f6e20696e70757420646f6573206e6f74206d617460008201527f63682e0000000000000000000000000000000000000000000000000000000000602082015250565b7f496e76616c6964207369676e61747572652e0000000000000000000000000000600082015250565b7f746865207472616e73616374696f6e206973206e6f74206f6e2074686520736160008201527f6d65207374617475732e00000000000000000000000000000000000000000000602082015250565b6125d081612270565b81146125db57600080fd5b50565b6125e78161228e565b81146125f257600080fd5b50565b6125fe81612298565b811461260957600080fd5b50565b612615816122cc565b811461262057600080fd5b5056fea264697066735822122017740134350674368891d7428e9dd37f3382898e67556a01ff5482f80a85372c64736f6c63430008070033",
  "immutableReferences": {},
  "source": "import \"./abstractFSM.sol\";\r\n\r\n//<editable>\r\n//</editable>\r\ncontract S3__Seller is actorFSM {\r\n    constructor() public {\r\nowner = ownerAccounts['S3__Seller'];\r\naddToTransitions(\"Gateway_0c2ssha\", \"Seller_Sign_Purchase_Document\",\"\",\"\");\r\nState memory Seller_Sign_Purchase_Document = State({\r\n    STATEID: \"Seller_Sign_Purchase_Document\",\r\n    TYPE: \"solid\",\r\n    conditions: \"\",\r\n    LEVEL: 3,\r\n    OUTPUTDATA: \"\",\r\n    INPUTDATA: \"\"\r\n});\r\nstates.push(Seller_Sign_Purchase_Document);\r\n\r\n        // ipfsAddr = ipfsActorAddresses['actor'];\r\n\r\n\r\n    }\r\n//<editable>\r\n//</editable>\r\n}",
  "sourcePath": "C:/Users/chris/OneDrive/dal teach/6313/assignments/csci6313-a5-tutorial/contracts/S3_Seller.sol",
  "compiler": {
    "name": "solc",
    "version": "0.8.7+commit.e28d00a7.Emscripten.clang"
  },
  "schemaVersion": "3.3.3",
  "updatedAt": "2022-07-12T00:54:22.892Z",
  "devdoc": {
    "kind": "dev",
    "methods": {
      "attestSignature(address,string,uint8,bytes32,bytes32)": {
        "details": "attest encryted data",
        "params": {
          "_message": "h = web3.utils.soliditySha3(document);signature = await web3.eth.sign(h, defaultAcc);",
          "_r": "signature.slice(0, 66);",
          "_s": "\"0x\" + signature.slice(66, 130);",
          "_v": "\"0x\" + signature.slice(130, 132); web3.utils.toDecimal(v); v + 27;",
          "referenceAddress": "the reference address used to be compared with.."
        }
      },
      "getActorAccountFromActor(string)": {
        "details": "getActorAccountFromActor",
        "params": {
          "actorname": "actorname"
        }
      },
      "getActorFromXaction(string)": {
        "details": "getActorFromXaction",
        "params": {
          "xactionName": "collaborative transaction name"
        }
      },
      "getActorFromXactionAccount(address)": {
        "details": "getActorFromXactionAccount",
        "params": {
          "xactionAccount": "account of subgraph"
        }
      },
      "getXactionAccountFromXaction(string)": {
        "details": "getXactionAccountFromXaction",
        "params": {
          "xactionName": "collaborative transaction name"
        }
      },
      "getXactionFromXactionAccount(address)": {
        "details": "getXactionFromXactionAccount",
        "params": {
          "xactionAccount": "account of subgraph"
        }
      },
      "recoverSignature(string,uint8,bytes32,bytes32)": {
        "details": "recover encryted data",
        "params": {
          "message": "h = web3.utils.soliditySha3(document);signature = await web3.eth.sign(h, defaultAcc);",
          "r": "signature.slice(0, 66);",
          "s": "\"0x\" + signature.slice(66, 130);",
          "v": "\"0x\" + signature.slice(130, 132); web3.utils.toDecimal(v); v + 27;"
        }
      }
    },
    "version": 1
  },
  "userdoc": {
    "kind": "user",
    "methods": {},
    "version": 1
  }
}